:020000040800F2
:10000000B0060020CD010008C9090008110500084C
:10001000C5090008FF020008FB18000800000000E6
:10002000000000000000000000000000BD0B000800
:1000300061030008000000005D0A0008190D0008B7
:10004000E7010008E7010008E7010008E7010008F0
:10005000E7010008E7010008E7010008E7010008E0
:10006000E7010008E7010008E7010008E7010008D0
:10007000E7010008E7010008E7010008E7010008C0
:10008000E7010008E7010008E7010008E7010008B0
:10009000E7010008E7010008E7010008E7010008A0
:1000A000E7010008D90D0008E7010008E701000892
:1000B000E7010008E7010008E7010008E701000880
:1000C000E7010008E7010008E7010008E701000870
:1000D000E701000865140008E7010008E7010008CF
:1000E000E7010008E7010008E7010008E701000850
:1000F000E7010008E7010008E7010008E701000840
:10010000E7010008E70100085D0E0008E7010008AC
:10011000E7010008E7010008E7010008E70100081F
:10012000E7010008E7010008E7010008E70100080F
:1001300000F002F800F03AF80AA090E8000C8244BF
:100140008344AAF10107DA4501D100F02FF8AFF29C
:10015000090EBAE80F0013F0010F18BFFB1A43F0A5
:1001600001031847701A0000901A0000103A24BFCB
:1001700078C878C1FAD8520724BF30C830C144BF0C
:1001800004680C607047000000230024002500264E
:10019000103A28BF78C1FBD8520728BF30C148BFEA
:1001A0000B6070471FB51FBD10B510BD00F071F892
:1001B0001146FFF7F7FF01F041FC00F08FF803B4A0
:1001C000FFF7F2FF03BC00F093F8000009488047F6
:1001D00009480047FEE7FEE7FEE7FEE7FEE7FEE729
:1001E000FEE7FEE7FEE7FEE704480549054A064B41
:1001F000704700001D0D000831010008B00000200C
:10020000B0060020B0020020B00200204FF0013CF8
:1002100050F8042B51F8043B9A4221D1A2EB0C0375
:10022000934313EACC1317D150F8042B51F8043B35
:100230009A4215D1A2EB0C03934313EACC130BD1D2
:1002400050F8042B51F8043B9A4209D1A2EB0C035D
:10025000934313EACC13DBD04FF00000704700BF8C
:10026000D01A01BAB1FA81F101F0180122FA01F0B5
:10027000CB40C1F12001DBB2C0B2C01A2CFA01F3AD
:10028000D11A914311EAC311E6D170477047704704
:100290007047754600F028F8AE460500694653469B
:1002A00020F00700854618B020B5FFF79DFFBDE898
:1002B00020404FF000064FF000074FF000084FF0CD
:1002C000000B21F00701AC46ACE8C009ACE8C0095E
:1002D000ACE8C009ACE8C0098D4670470446AFF3EE
:1002E00000802046FFF76BFF004870475000002059
:1002F00001491820ABBEFEE726000200704700BF90
:10030000FEE700002DE9F04105460C460026218855
:10031000681A01F0FAFB21F00041074601F0C8FB22
:1003200086B2CEB113E02088A84203DD2088401EAB
:10033000208005E02088A84202DA2088401C208026
:100340002188064801F014F8022001F051FB30002A
:10035000A6F101018EB2E6D1BDE8F08100080040AF
:1003600070472DE9F04102460025002600200023B9
:100370000024002791F803C00CF00F0591F803C08A
:100380000CF0100CBCF1000F03D091F802C04CEA45
:10039000050591F800C0BCF1000F31D014680020B1
:1003A0002BE04FF0010C0CFA00F3B1F800C00CEA9E
:1003B00003069E4220D183004FF00F0C0CFA03F786
:1003C000BC4305FA03FC4CEA040491F803C0BCF1F9
:1003D000280F06D14FF0010C0CFA00FCC2F814C033
:1003E0000AE091F803C0BCF1480F05D14FF0010CB1
:1003F0000CFA00FCC2F810C0401C0828D1D31460CD
:10040000B1F800C0BCF1FF0F34DD546800202EE0CD
:1004100000F1080C4FF0010808FA0CF3B1F800C025
:100420000CEA03069E4221D183004FF00F0C0CFA18
:1004300003F7BC4305FA03FC4CEA040491F803C03B
:10044000BCF1280F05D100F1080C08FA0CF8C2F82D
:10045000148091F803C0BCF1480F07D100F1080CDB
:100460004FF0010808FA0CF8C2F81080401C082868
:10047000CED35460BDE8F081F0B50A4600230024D5
:100480000021002500F00046B6F1004F02D11D4EBC
:10049000F16901E01B4E7168C0F3034583B200F4BB
:1004A0004016B6F5401F08D121F07061154E7668F0
:1004B00026F07066134F7E6012E000F48016B6F5E9
:1004C000801F06D1032606FA05F4A14341F07061AE
:1004D00006E0460D360103FA06F6B14341F07061BD
:1004E00022B1460D360103FA06F6314300F000460C
:1004F000B6F1004F02D1034EF16101E0014E71608F
:10050000F0BD00000000014041617047016170478B
:1005100000BFFEE710B50446104940F20E60FFF739
:10052000F1FE0FA000F0DCF8012C02D100F078F908
:100530000DE0022C02D100F0A3F908E0032C02D157
:1005400000F086F903E0042C01D100F051F906A077
:1005500000F0C6F805A000F01DF910BD4400002011
:1005600043617463680000004F6E00004772697059
:100570007065720008B50121142000F0A5FA4FF44F
:100580000040ADF8000010208DF8030003208DF826
:10059000020069460848FFF7E4FE4FF4E050ADF86A
:1005A000000010208DF8030003208DF8020069463A
:1005B0000248FFF7D6FE08BD0008014000100140C8
:1005C00070B504460D4605B334B1012C0AD0022C97
:1005D0000ED0032C18D111E04FF400411C48FFF756
:1005E00095FF11E04FF480611A48FFF78FFF0BE091
:1005F0004FF400611748FFF789FF05E04FF4805181
:100600001448FFF783FF00BF20E034B1012C0AD06B
:10061000022C0ED0032C18D111E04FF400410C48ED
:10062000FFF772FF11E04FF480610A48FFF76CFF9B
:100630000BE04FF400610748FFF766FF05E04FF459
:1006400080510448FFF760FF00BF00BF70BD00008D
:10065000000801400010014010B504462089012225
:100660000D4900F025F9E08801220B49891E00F0B0
:100670001FF9A08801220849091F00F019F96088B4
:1006800001220549891F00F013F92088012202493F
:10069000083900F00DF910BD4400002010B50446E3
:1006A000208800220D4900F003F9608800220B49E0
:1006B000891C00F0FDF8A08800220849091D00F0FF
:1006C000F7F8E08800220549891D00F0F1F820893B
:1006D00000220249083100F0EBF810BD3C00002078
:1006E00010B5044640F2DC500E49088040F23A70E2
:1006F000488040F25A50888040F6E800C8800AA13D
:100700002046FFF783FD20B940F20E6005490881BD
:1007100003E040F2E240034908810248FFF79CFFF2
:1007200010BD0000460000204361746368000000B3
:1007300010B540F2DC51144800F014FE40F20461A0
:10074000124800F00FFE4FF4C861104800F00CFE94
:1007500040F6E8010D4800F009FE40F2E2410B4886
:1007600000F006FE40F2DC500949088040F20460C7
:1007700048804FF4C860888040F6E800C88040F2A6
:10078000E240088110BD0000000400400008004065
:100790003C00002010B5044640F2DC500F490880B0
:1007A00040F2046048804FF4C860888040F6E8005A
:1007B000C88040F2E240088109A12046FFF726FDEB
:1007C00018B90648FFF76AFF07E007A12046FFF7C0
:1007D0001DFD10B90148FFF73FFF10BD4600002086
:1007E0005761697374000000477269707065720028
:1007F00010B54FF4F560094908804FF4BE60488099
:1008000040F25460888040F6E800C88040F2E24040
:1008100008810846FFF742FF10BD00004600002097
:1008200010B540F24C40094908804FF4BE60488042
:1008300040F25460888040F6E800C88040F2E24010
:1008400008810846FFF72AFF10BD0000460000207F
:1008500010B540F2AE60094908804FF4BE60488090
:1008600040F25460888040F6E800C88040F2E240E0
:1008700008810846FFF712FF10BD00004600002067
:1008800010B540F2EC40094908804FF4BE60488042
:1008900040F25460888040F6E800C88040F2E240B0
:1008A00008810846FFF7FAFE10BD00004600002050
:1008B0002DE9F04705460C4616464FF00009218801
:1008C000681A01F022F921F00041074601F0F0F822
:1008D0001FFA80F9B9F1000F61D059E02088A842D1
:1008E00003DD2088401E208005E02088A84202DA2F
:1008F0002088401C2080012E23D12F480078052815
:100900001DD2DFE800F003080D12170021882B48E4
:1009100000F02EFD14E02188284800F027FD0FE0AC
:100920002188264800F020FD0AE02188234800F0B5
:1009300019FD05E02188224800F014FD00E000BF09
:1009400023E01D48007805281DD2DFE800F01712CB
:100950000D0803002188194800F00AFD14E02188E1
:10096000164800F003FD0FE02188144800F0FCFC5D
:100970000AE02188114800F0F5FC05E021881048C4
:1009800000F0F0FC00E000BF00BF022001F030F8F2
:100990005FEA0900A9F101011FFA81F99ED1064819
:1009A0000078401C0449087008460078052801D1E9
:1009B00000200870BDE8F0873A00002000080040E1
:1009C0000004004000BFFEE7704710B54FF4A06080
:1009D00000F03AF810BD000070B5002100230F228E
:1009E000C47804B3154C246804F4E064C4F5E064EE
:1009F000210AC1F10403CA40447804FA03F184785F
:100A00001440214309010E4C0678A155047804F0E6
:100A10001F050124AC4005786D11AD0005F1E025FE
:100A2000C5F8004109E0047804F01F050124AC403A
:100A3000044D0678761145F8264070BD0CED00E0B7
:100A400000E400E080E100E002490143024A116055
:100A5000704700000000FA050CED00E07047000050
:100A600010B510480088012806D0022808D00328B5
:100A70000AD0042810D10BE00120FFF74BFD0CE059
:100A80000220FFF747FD08E00320FFF743FD04E0E5
:100A90000420FFF73FFD00E000BF00BF0520014933
:100AA000088010BD3200002029B1064AD2690243F5
:100AB000044BDA6104E0034AD2698243014BDA61F4
:100AC000704700000010024029B1064A92690243B3
:100AD000044B9A6104E0034A92698243014B9A6194
:100AE000704700000010024030B5002100220024B1
:100AF00000232D4D6D6805F00C0121B1042905D0AE
:100B0000082923D105E0294D056022E0274D056025
:100B10001FE0254D6D6805F47012234D6D6805F4D6
:100B20008034022505EB92421CB9214D55430560E6
:100B30000BE01D4D6D6805F400351DB11C4D55438E
:100B4000056002E0194D5543056002E0174D056050
:100B500000BF00BF144D6D6805F0F0010909154D87
:100B60006B5C0568DD4045600F4D6D6805F4E06124
:100B7000090A104D6B5C4568DD4085600A4D6D6863
:100B800005F46051C90A0B4D6B5C4568DD40C560DA
:100B9000054D6D6805F44041890B074D6B5CC568D8
:100BA000B5FBF3F5056130BD0010024000127A007C
:100BB00000093D001A0000202A00002070470000B4
:100BC000F8B504460D468DF8004028128DF8010056
:100BD000E8B28DF80200E043C0B28DF803000026B1
:100BE0000DE000BF4021074800F0B5FD0028F9D016
:100BF0001DF80610034800F07CFE701CC6B2042EDF
:100C0000EFDBF8BD0038014010B500F001F810BD71
:100C10000CB50020019000903348006840F480300B
:100C20003149086000BF3048006800F4003000908F
:100C30000198401C0190009818B90198B0F5A06F78
:100C4000F1D12948006800F4003010B10120009073
:100C500001E0002000900098012843D1234800685B
:100C600040F01000214908600846006820F00300A9
:100C700008600846006840F0020008601A484068B2
:100C8000194948600846406848600846406840F492
:100C9000806048600846406820F47C104860084640
:100CA000406840F4E81048600846006840F08070F2
:100CB000086000BF0C48006800F000700028F9D000
:100CC0000948406820F0030007494860084640682A
:100CD00040F00200486000BF0348406800F00C008C
:100CE0000828F9D10CBD000000100240002002408D
:100CF000042808D14FF0E021096941F004014FF0C8
:100D0000E022116107E04FF0E021096921F00401C0
:100D10004FF0E022116170477047000010B5134892
:100D2000006840F001001149086008464068104919
:100D300008400E494860084600680E4908400B49C3
:100D400008600846006820F4802008600846406873
:100D500020F4FE0048604FF41F008860FFF754FF46
:100D60004FF000600449086010BD00000010024010
:100D70000000FFF8FFFFF6FE08ED00E07FB5054636
:100D80000C460121C802FFF79FFEADF80850ADF8F0
:100D900004400020ADF80A00ADF8060001A90D4896
:100DA00000F0ECFA012211460A4800F0DAF81920A6
:100DB0008DF8000003208DF801008DF8020001205D
:100DC0008DF803006846FFF707FE0121014800F097
:100DD000A8F87FBD002C014010B501211D4800F08E
:100DE000AFF8002835D01C48008898B90021084683
:100DF000FFF7E6FB00210120FFF7E2FB00210220C4
:100E0000FFF7DEFB00210320FFF7DAFB0120124988
:100E100008801AE010480088012813D10121002021
:100E2000FFF7CEFB01210846FFF7CAFB0121022094
:100E3000FFF7C6FB01210320FFF7C2FB0020064994
:100E4000088002E00020044908800121014800F0E8
:100E500065F810BD002C01401800002010B52C488A
:100E6000007800F0800000284CD10121294800F0D2
:100E700067F8012818D12648007800F0400098B1A2
:100E80002348007800F0010048B12148007840F084
:100E900080001F49087001201F49088004E01C4899
:100EA0000078401C1A49087002211A4800F048F8DE
:100EB000012827D11648007800F0400078B1144886
:100EC000007840F0800012490870124800F035F8B0
:100ED0001149088000210F4800F098F812E0002026
:100EE0000B4908700C4908800948007840F0400020
:100EF000074908700021074800F03DFA0221054823
:100F000000F084F80321034800F008F810BD000049
:100F100016000020000C004014000020CA4302828A
:100F2000704721B1028842F00102028004E0028889
:100F30004FF6FE731A40028070470146888E704754
:100F400030B50246002000230024158A05EA01037B
:100F5000958905EA010413B10CB1012000E00020DD
:100F600030BD1AB183890B43838102E083898B43AF
:100F70008381704770B5002400220023058C4FF652
:100F8000FE7635400584028C8388048B4FF68F757E
:100F90002C40B51E2C400D882C43751E2A400D890F
:100FA0002A434D882A43144DA8420BD0134DA84222
:100FB00008D0134DA84205D0124DA84202D0124DC0
:100FC000A84213D14FF6F7752A404D892A434FF6B0
:100FD000FB752A408D882A434FF6FF652B404FF65C
:100FE000FF552B408D892B43CD892B438380048370
:100FF000CD888586028470BD002C014000340140FC
:101000000040014000440140004801400A460021E0
:10101000018C4FF6FD7319401143018470470A4655
:101020000021018B4FF6F77319401143018370477C
:1010300070B5002400220023058C4FF6EF76354072
:101040000584028C8388048B48F6FF752C404FF68C
:10105000FF452C400D884FF6FF7606EA05252C4308
:101060004FF6DF752A400D8906EA05152A434D889B
:1010700006EA05152A43154DA84202D0144DA84290
:101080001DD14FF67F752A404D894FF6FF7606EA4F
:1010900005152A434FF6BF752A408D8806EA0515C7
:1010A0002A434FF6FF352B404FF2FF752B408D89B9
:1010B00006EA85052B43CD8906EA85052B43838007
:1010C0000483CD880587028470BD0000002C014098
:1010D000003401400A460021018B4FF2FF73194092
:1010E0004FF6FF7303EA02231943018370470000A0
:1010F00070B5002400220023058C4FF6FF663540B2
:101100000584028C8388848B4FF68F752C404FF6B4
:10111000FC752C400D882C434FF6FF552A400D8955
:101120004FF6FF7606EA05252A434D8806EA05258F
:101130002A43154DA84202D0144DA8421DD14FF2AA
:10114000FF752A404D894FF6FF7606EA05252A43AA
:101150004FF6FF352A408D8806EA05252A434EF6CC
:10116000FF752B404DF6FF752B408D8906EA05155E
:101170002B43CD8906EA05152B4383808483CD88D4
:101180008587028470BD0000002C014000340140BE
:101190000A460021818B4FF6F77319401143818372
:1011A0007047000070B5002200230024058C4EF625
:1011B000FF7635400584038C8488828B48F6FF7562
:1011C0002A404FF6FF452A400D884FF6FF7606EA83
:1011D00005252A434DF6FF752B400D8906EA053596
:1011E0002B434D8806EA05352B430B4DA84202D010
:1011F0000A4DA84208D14BF6FF752C408D894FF659
:10120000FF7606EA85152C4384808283CD88A0F87A
:101210004050038470BD0000002C014000340140A8
:101220000A460021818B4FF2FF7319404FF6FF737E
:1012300003EA0223194381837047000030B589B067
:1012400005460C4601210220FFF72EFC0121042057
:10125000FFF72AFC01210920FFF736FC01213C4859
:10126000FFF70AF901213B48FFF706F940F2F33096
:10127000ADF8200018208DF8230003208DF82200FF
:1012800008A93548FFF76DF8ADF81850ADF81440CF
:101290000020ADF81A00ADF8160005A92F4800F09F
:1012A0006DF805A92E4800F069F86020ADF804003B
:1012B0000120ADF806000020ADF80C0001A9274878
:1012C000FFF758FE08212548FFF7A9FE01A923488A
:1012D000FFF7AEFE08212148FFF7FCFE01A91F48D9
:1012E000FFF706FF08211D48FFF752FF01A91B4821
:1012F000FFF758FF08211948FFF792FF01A9184886
:10130000FFF738FE08211648FFF789FE01A91448A7
:10131000FFF78EFE08211248FFF7DCFE01A91048F6
:10132000FFF7E6FE08210E48FFF732FF01A90C483F
:10133000FFF738FF08210A48FFF772FF012107482D
:10134000FFF7EFFD01210648FFF7EBFD09B030BDC7
:101350000002300000081A00000C014000040040A8
:101360000008004081867047018770478187704779
:10137000A0F8401070478184704700000022028866
:101380001D4B98420ED01D4B98420BD0B0F1804FB0
:1013900008D01B4B984205D01A4B984202D01A4BEA
:1013A000984204D14FF68F731A404B881A43174B5B
:1013B000984207D0164B984204D04FF6FF431A408C
:1013C000CB881A4302808B8883850B8803850A4B60
:1013D00098420BD0094B984208D00E4B984205D04A
:1013E0000D4B984202D00D4B984201D10B7A0386E7
:1013F0000123838270470000002C0140003401402B
:101400000004004000080040000C004000100040B4
:1014100000140040004001400044014000480140E9
:1014200010B50D4801880D48FFF79CFF0A48418818
:101430000B48FFF797FF084881880948FFF794FF9A
:101440000548C1880648FFF791FF03480189044811
:10145000FFF78EFF10BD0000460000200004004092
:101460000008004010B540F22551A84800F080F96E
:1014700080B1A64800F038FAA549A64A12788854E7
:1014800040F22551A14800F04BF9A2480078401CD9
:10149000A04908709F480078032817D100209D4973
:1014A00008709B48007890B99948407801280ED17F
:1014B00097488078FF280AD1974800880A309649D3
:1014C0000880084601880020FFF77AFB1CE190485D
:1014D000007890B98E48407802280ED18C488078E8
:1014E000FF280AD18C4800880A388B4908800846B2
:1014F00001880020FFF764FB06E185480078012899
:1015000012D18348407803280ED181488078FE2884
:101510000AD1814840880A307F494880084641887E
:101520000120FFF74DFBEFE079480078012812D148
:101530007748407804280ED175488078FE280AD173
:10154000754840880A387449488008464188012017
:10155000FFF736FBD8E06E480078022812D16C48BD
:10156000407805280ED16A488078FD280AD16A485B
:1015700080880A3068498880084681880220FFF701
:101580001FFBC1E062480078022812D16048407811
:1015900006280ED15E488078FD280AD15E488088F2
:1015A0000A385D498880084681880220FFF708FBD9
:1015B000AAE057480078032812D1554840780728F8
:1015C0000ED153488078FC280AD15348C0880A308D
:1015D0005149C8800846C1880320FFF7F1FA93E01B
:1015E0004B480078032812D14948407808280ED18A
:1015F00047488078FC280AD14748C0880A384649BD
:10160000C8800846C1880320FFF7DAFA7CE040482A
:101610000078042812D13E48407809280ED13C4871
:101620008078FB280AD13C4800890A303A49088171
:10163000084601890420FFF7C3FA65E034480078C2
:10164000042812D1324840780A280ED130488078D8
:10165000FB280AD1304800890A382F4908810846FA
:1016600001890420FFF7ACFA4EE0294800780528EC
:101670000BD1274840780B2807D125488078FA28D5
:1016800003D10120254908803EE021480078052843
:101690000BD11F4840780C2807D11D488078FA28C4
:1016A00003D102201D4908802EE019480078052842
:1016B0000BD1174840780D2807D115488078FA28B3
:1016C00003D10320154908801EE011480078052841
:1016D0000BD10F4840780E2807D10D488078FA28A2
:1016E00003D104200D4908800EE00948007806283F
:1016F0000AD107484078102806D105488078FA2892
:1017000002D105200549088010BD000000380140C5
:101710003700002036000020460000203200002064
:1017200010B50022002340F66A14A14200D100BF88
:101730000A1201249440A3B2DC43048010BD21B1FD
:10174000828942F40052828104E082894DF6FF735F
:101750001A408281704702460020B1F5007F00D117
:1017600000BF13880B400BB1012000E00020704740
:1017700070B50246002400230025002040F66A16BA
:10178000B14200D100BFC1F3421501F01F03012691
:1017900006FA03F3012D02D19689334006E0022DAB
:1017A00002D1168A334001E0968A33400C1201269A
:1017B00006FA04F41688344013B10CB1012000E09D
:1017C000002070BDF0B5034600240026002500204F
:1017D00040F66A17B94200D100BF1846C1F342145F
:1017E00001F01F06012707FA06F5012C01D10C3084
:1017F00004E0022C01D1103000E014301AB1076867
:101800002F43076002E00768AF430760F0BD0000A8
:101810002DE9F04786B005460E460024A24600BFDB
:10182000A1460027B08900B100BF2F462C8A4CF694
:10183000FF700440F08804432C82AC894EF6F3100C
:101840000440B08831890843718908430443AC815E
:10185000AC8A4FF6FF400440B0890443AC8201A833
:10186000FFF742F91F48874202D1DDF810A001E0DE
:10187000DDF80CA0A88900F4004040B10AEBCA00D2
:1018800000EB0A1031684900B0FBF1F807E00AEB01
:10189000CA0000EB0A1031688900B0FBF1F864203F
:1018A000B8FBF0F004012009642101FB1089A8892C
:1018B00000F4004040B1322000EBC900B0FBF1F071
:1018C00000F00700044308E0322000EB0910642117
:1018D000B0FBF1F000F00F0004432C8106B0BDE82E
:1018E000F08700000038014001468888C0F30800F6
:1018F0007047C1F308028280704700BFFEE7000016
:1019000010B586B0044601218803FFF7DDF80121F8
:101910000420FFF7D9F818208DF807004FF4007065
:10192000ADF8040003208DF8060001A91D48FEF75C
:1019300018FD04208DF807000002ADF80400032014
:101940008DF8060001A91748FEF70BFD0294002050
:10195000ADF814000C20ADF812000020ADF8100016
:10196000ADF80E00ADF80C0002A90F48FFF750FFCC
:1019700025208DF8000001208DF8030002208DF84D
:1019800001008DF802006846FFF726F8012240F2B8
:1019900025510548FFF716FF01210348FFF7CFFE49
:1019A00006B010BD000801400038014010B56FF0CE
:1019B0000400FFF79DF90A4800680A49B0FBF1F0FE
:1019C000094908700846007800EB4001C1EBC010DF
:1019D0004FF6FF7101EAC0000449088010BD000005
:1019E0000000002000127A002E00002030000020AD
:1019F0000146114A12884A434FF0E0235A610022FF
:101A00009A611A46126942F001021A6100BF4FF052
:101A1000E022106900F001021AB100F48032002ABD
:101A2000F5D04FF0E022126922F001024FF0E023DE
:101A30001A6100229A61704730000020FFF7B6FF5C
:101A4000FEF798FD00210846FEF7BAFDFEF7BDFF40
:101A500041F61F4140F6C310FFF790F9472144F6C5
:101A60001F60FFF7EBFB4FF41650FFF749FF40F202
:101A7000DC500D49088040F2046048804FF4C86093
:101A8000888040F6E800C88040F2E2400881FEF716
:101A90004FFE08E001E0FFF7C3FC0448008805287A
:101AA000F9D0FEF7DDFFF5E7460000203200002008
:101AB0004FEA1153A3F58063D3F11E03A8BFD3F1FE
:101AC000200C08DB4FF0004242EAC12252EA505299
:101AD00032FA03F0704709420BD4102BC4BF002028
:101AE000704703F5787CBCF1FF3F05D04FF0FF3025
:101AF00070474FF00000704770B500F01DF800BF50
:101B00004992248000207047F0E710F0004248BF5F
:101B10004042B0FA80F310FA03F10AD0C3F11D037A
:101B200003F580634FEA415002EB035202EBD121EF
:101B300070474FF0000070470EF1020E2EF0030EBA
:101B40005EF8046B364205D4012A43EB030515F514
:101B5000001F12D8012841EB010C1CF5001F0CD806
:101B60000ED14FEAD17C15F5001F0CEB4C0C0CF19B
:101B7000020C08BF4CEBD37C04E04FF0080C01E0F2
:101B80004FEAD37C0CEB4C0526FA05F606F0070667
:101B9000B6F1040C06D20EEB860CBDE870404CF09A
:101BA000010C6047DFE80CF0090B02024FF0004126
:101BB0004FF00000A1F5002170BD19461046012824
:101BC00051EB010418BFD4F5001484BF002001F0CC
:101BD000004170BDF41B0008000000203C00000024
:101BE0006C010008301C00083C0000207406000056
:101BF0008801000800A24A04000000000000000064
:101C000001020304060708090000000000000000AC
:101C1000000001020304010203040607080902048C
:101C20000608000000000000000000FFFFFF0000A9
:0400000508000131BD
:00000001FF
